:020000040800F2
:1000000000100020750D0008490300084B0300088C
:1000100000000000000000000000000000000000E0
:100020000000000000000000000000004D03000878
:1000300000000000000000004F030008510300080A
:10004000C50D000800000000C50D0008C50D000822
:10005000C50D0008C50D0008C50D0008C50D000838
:1000600000000000C50D0008C50D0008C50D000802
:10007000C50D0008C50D0008C50D000800000000F2
:10008000C50D00080000000000000000E50B00089E
:1000900000000000E1080008050C0008C50D00087C
:1000A00000000000C50D000800000000C50D00089C
:1000B0000000000000000000000000000000000040
:1000C000002243088B4274D303098B425FD3030A97
:1000D0008B4244D3030B8B4228D3030C8B420DD3AA
:1000E000FF22090212BA030C8B4202D31212090238
:1000F00065D0030B8B4219D300E0090AC30B8B4276
:1001000001D3CB03C01A5241830B8B4201D38B0323
:10011000C01A5241430B8B4201D34B03C01A5241C8
:10012000030B8B4201D30B03C01A5241C30A8B420B
:1001300001D3CB02C01A5241830A8B4201D38B02F6
:10014000C01A5241430A8B4201D34B02C01A52419A
:10015000030A8B4201D30B02C01A5241CDD2C3090C
:100160008B4201D3CB01C01A524183098B4201D388
:100170008B01C01A524143098B4201D34B01C01A73
:10018000524103098B4201D30B01C01A5241C308EB
:100190008B4201D3CB00C01A524183088B4201D35A
:1001A0008B00C01A524143088B4201D34B00C01A46
:1001B0005241411A00D20146524110467047FFE7B2
:1001C00001B5002000F006F802BDC0460029F7D0B6
:1001D00076E770477047C04610B5064C2378002B71
:1001E00007D1054B002B02D0044800E000BF0123DB
:1001F000237010BD0400002000000000200E000845
:10020000044B10B5002B03D00349044800E000BFA5
:1002100010BDC0460000000008000020200E0008AD
:1002200010B5284A136801218B430B431360254BFB
:100230001B68DB07FBD5244A136801210B431360BD
:10024000214B1B689B07FBD51F4B1A68F8218A437B
:1002500078390A431A605A681C491140A022920357
:100260000A435A60DA6A0F218A43DA6219688022E7
:1002700052040A431A60144B1B689B01FBD5124BB6
:100280005A68F0218A435A605A6811490A405A60F4
:100290005A6803218A4301390A435A600A4B5A6853
:1002A0000C231340082BF9D10A4C200000F0AAF8C7
:1002B000200000F0B7F8044A136B10218B4313633E
:1002C00010BDC0460020024000100240FFFFC2FFE8
:1002D000FFF8FFFF006CDC0210B582B0114B9A6989
:1002E00001210A439A619A690A400192019AD869E8
:1002F000802464052043D861DA6922400092009A84
:100300009A690A439A61FFF78BFF00F00DF800F03D
:1003100091F800F0EBF900F0A7FC00F0EFFA00F024
:1003200043FBFCE70010024082B0064A516980207E
:10033000800201435161536903400193019B02B064
:100340007047C04600100240FEE7FEE77047704766
:100350007047F0B5002216E0C6682B006B435F00C3
:10036000FF18FC43A446BE430F695F433E43C6608B
:100370004C68022C27D0046865462C404D686B43BE
:100380002343036001320C682300D34037D001239C
:10039000934025001D401C42F4D04B68013B012BCB
:1003A000DAD883682C006C4366003619B3438E6834
:1003B0007443234383600C684368A343CE6874434B
:1003C00023434360C8E7FF2D0BD8066A1C006C432B
:1003D00065432C01641BA6434C69654335430562A4
:1003E000C9E7466A2D0A2C006C436C4365432C0117
:1003F000641BA6434C69654335434562BBE7002057
:10040000F0BD000010B5FA218900FFF759FE013850
:10041000034B586000229A6005321A6010BDC04636
:1004200010E000E0014B18607047C046000000205B
:10043000704700009023DB051968A02292030A434D
:100440001A605968C022D2000A435A609968F022A3
:1004500092030A439A60596A8822D2000A435A6278
:100460000B4AD16980239B030B43D361094B196865
:10047000012081431960084A1A611968074A11402E
:100480001960D0225A601A6802431A607047C04649
:1004900000100240005400400E090020FFFFFDFF45
:1004A000234B5A6823490A405A605A6822490A4035
:1004B0005A605A6821490A405A605968802252029B
:1004C0000A435A601A4B9B69DB07FBD5184A5168EF
:1004D00080239B010B435360154B9B699B07FBD506
:1004E000134B9862124B9B695B06FBD5104B596806
:1004F000802292040A435A6059688022D2000A433B
:100500005A605A680D490A405A605968802252025E
:100510000A435A605968802292010A435A60044B88
:100520009B695B07FBD5024B586AC0B27047C04657
:1005300000540040FFFFFFFDFFFBFFFFFFFF00FF38
:1005400030B5304B5A6830490A405A605A682F49D2
:100550000A405A605A682E490A405A6059688022F7
:1005600052020A435A60274B9B69DB07FBD5254A99
:10057000516880239B010B435360224B9B699B076F
:10058000FBD5204B01229A621E4B9B695B06FBD573
:100590001C4B5968802292040A435A605968802291
:1005A000D2000A435A605A6819490A405A60596889
:1005B000802292020A435A605968802292010A43BB
:1005C0005A60104B9B695B07FBD50E4B5A6AD2B23F
:1005D0000C4B9B695B07FBD50A4B5C6AE1B20F25AC
:1005E0002800104013099A009B185A0082180948E5
:1005F00002702C400B099A009B185A00A4184470F2
:1006000030BDC04600540040FFFFFFFDFFFBFFFF71
:10061000FFFF00FF2000002070B505000E000A213A
:100620003000FFF7D3FD0F240C400A213000FFF704
:1006300047FDC1B209010C43E4B2154B5968802251
:1006400092040A435A605A6812490A405A605A682A
:1006500011490A405A605968802292020A435A603E
:100660000B4B9B69DB07FBD5094A516880239B0133
:100670000B435360064B9B699B07FBD5044B9D6264
:10068000034B9B699B07FBD5014B9C6270BDC04629
:1006900000540040FFFBFFFFFFFF00FF10B50420E8
:1006A000FFF7FEFE0F230340000982008018400080
:1006B0001818C0B210BD10B50520FFF7F1FE0F23CA
:1006C000034000098200801840001818C0B210BD15
:1006D00010B50620FFF7E4FE0F2303400009820057
:1006E000801840001818C0B210BD000030B590222C
:1006F000D205116888235B010B4313609168CC23FA
:100700009B010B439360116888231B020B4313600A
:100710009168CC231B020B43936021498869802395
:100720005B0103438B611F4B1C68C0200002204308
:1007300018601C68C12080002043186018681024CD
:10074000204318601C68012084431C601C6802253B
:10075000AC431C605D68E024E4002C435C601C68D2
:1007600040252C431C608C6980239B0223438B61B2
:100770000D4B0E4999620421D962D9680143D960B1
:100780001968014319600A4B802189031960094BDC
:1007900000211970916980235B030B43936130BD85
:1007A0000010024000300140004401407FBB0000C7
:1007B00000E100E029000020034B9B689B07FBD56C
:1007C000024B18707047C046003001400C300140A9
:1007D00010B59023DB059A6910210A439A61996943
:1007E0008022D2030A439A61254B1B78012B0ED03D
:1007F000022B34D0234A1378DBB22349CB5C234944
:10080000C85C1378DBB2224AD35C18430BE01D4A64
:100810001378DBB21C49CB5C1C49C85C1378DBB293
:100820001C4AD35C1843FFF7C7FF1B4B9B681B0692
:10083000FBD49022D205936940210B439361114A66
:1008400013780133DBB213701378042B14D0902289
:10085000D205916980235B030B43936110BD094A64
:100860001378DBB20849CB5C0849C85C1378DBB26B
:100870000A4AD35C1843D6E7130000221A70E6E751
:10088000290000202800002024000020380E000845
:10089000440E0008480E0008003001404C0E0008CD
:1008A00070B505000E000C4B1A700C4C0A2130007C
:1008B000FFF78CFC21700A213000FFF701FC60700B
:1008C0000A212800FFF782FCA1700A212800FFF707
:1008D000F7FBE07070BDC046290000202400002016
:1008E00010B5FFF775FF00F011FA034A13690121F3
:1008F0008B43136110BDC0460044014070B586B003
:1009000018220021684600F083FA9025ED050124A5
:10091000AC620226AE6200940194029469462800FB
:10092000FFF717FD009601940294002603960496A3
:1009300069462800FFF70DFD154AD16980235B0049
:100940000B43D361134B144898626421D962D96870
:100950002143D960196821431960104980231B0382
:100960000B6095698023DB022B4393610C4B9862EB
:10097000FA229200DA62DA682243DA601A681443D3
:100980001C608023DB030B60064B1E7006B070BD3D
:1009900000100240002000407FBB000000E100E0AA
:1009A000004801402B000020F8B5CE46474680B5F0
:1009B00000F088F900280CD0884A13780133DBB2A4
:1009C0001370022B02D9130000221A70002000F0CD
:1009D00085F9834B1B78002B03D0804B1B78002BB1
:1009E0000FD07E4B1B78012B16D07C4B1B78022B33
:1009F0001DD000F061F9002821D1C0BCB946B04635
:100A0000F8BDFFF79DFD017840780022FFF748FF11
:100A1000734B00221A70E4E7FFF740FE0400FFF773
:100A20004AFE010000222000FFF73AFFDDE7FFF752
:100A30004FFE010000221420FFF732FFD9E7674B79
:100A400003221A70FFF77CFD8146037898464778A9
:100A5000FFF724FE0500FFF72EFE0400FFF738FE27
:100A60000600002000F034F9002000F037F918E00B
:100A70005A4B1B78032B20D0584B1B78042B3DD0AE
:100A8000564B1B78052B53D0544B1B78062B69D043
:100A9000524B1B78072B7FD0504B1B78072B00D96C
:100AA00095E000F00FF90028E2D04C4A13780133AA
:100AB0001370002000F012F9DAE700F0FDF80028CA
:100AC0000AD043460133DBB298463B2B01D90023C1
:100AD0009846002000F0FCF8012241463800FFF75C
:100AE000DFFE4B461B784345C6D041460120FFF749
:100AF00093FD00210020FFF78FFDBDE700F0DCF83B
:100B0000002807D00137FFB2172F00D90027002097
:100B100000F0DEF8022241463800FFF7C1FE4B46E6
:100B20005B78BB42ACD039000220FFF775FDA7E728
:100B300000F0C2F8002807D00135EDB21F2D00D912
:100B40000125002000F0C4F8022221002800FFF750
:100B5000A7FEFFF7A3FDA84296D029000420FFF7C7
:100B60005BFD91E700F0A8F8002807D00134E4B25B
:100B70000C2C00D90124002000F0AAF80122210049
:100B80002800FFF78DFEFFF796FDA04280D02100E0
:100B90000520FFF741FD7BE700F08EF8002807D025
:100BA0000136F6B2632E00D90026002000F090F83E
:100BB000012231001420FFF773FEFFF789FDB042D8
:100BC00000D169E731000620FFF726FD64E7002029
:100BD00000F084F8002000F07BF80EE72B000020E6
:100BE0002A00002010B50124044B1C7000F05CF8B2
:100BF000034A1369A343136110BDC0462A000020B5
:100C000000200040164B1B78002B09D19022D20502
:100C100051690120414051615169013041405161A8
:100C2000012B07D0022B10D00E4A136901218B43F0
:100C3000136170479022D20551690120014351612F
:100C40005169013001435161ECE79023DB055A699A
:100C500001218A435A615A6901318A435A61E3E7A3
:100C60002B0000200048014010B59023DB05DA6816
:100C70003020824310210A43DA60DA68B0318A43B7
:100C800040242243DA601A6882431A601A688A4351
:100C90001A600023024A1370024A137010BDC04646
:100CA0002C0000202D000020024A138801331380FD
:100CB0007047C0462E000020014B18787047C04690
:100CC0002D000020014B18787047C0462C000020F2
:100CD000014B18707047C0462D000020014B187062
:100CE0007047C0462C000020012802D0022804D002
:100CF0007047044B01221A70F8E7034B01221A7067
:100D0000F6E7C0462C0000202D00002010B5FFF7AC
:100D1000D9FF00281BD1FFF7CFFF002817D1902360
:100D2000DB051B695B0708D59023DB051B691B07E7
:100D30000ED50E4B00221A8009E001200C4B1B78C7
:100D4000834207D00A4B1870084B00221A8010BD4E
:100D50000220F3E7054B1B88012BF8D9FFF7C4FFEE
:100D60000023034A1370014A1380F0E72E0000208D
:100D7000300000200D4885460D480E490E4A0023DC
:100D800002E0D458C4500433C4188C42F9D30B4A3F
:100D90000B4C002301E013600432A242FBD3FFF7A7
:100DA00047FB00F011F8FFF797FAFEE7001000206C
:100DB0000000002004000020580E0008040000205D
:100DC00034000020FEE7000070B500260C4D0D4CED
:100DD000641BA410A64209D1002600F021F80A4D98
:100DE0000A4C641BA410A64205D170BDB300EB5899
:100DF00098470136EEE7B300EB5898470136F2E723
:100E0000500E0008500E0008500E0008540E000846
:100E100003008218934200D1704719700133F9E73B
:100E2000F8B5C046F8BC08BC9E467047F8B5C04649
:080E3000F8BC08BC9E467047A7
:100E3800000102030405060708090000E0D0B070AD
:080E4800E0D0FFFFFFFFB070D6
:040E50000102000893
:040E5400D9010008B8
:040E580000127A000A
:0400000508000D756D
:00000001FF
